S00C00004D4355322E7372656301
S11300000C942A000C9447000C9447000C9447006D
S11300100C9447000C9447000C9447000C94470040
S11300200C9447000C9447000C9447000C94470030
S11300300C9447000C9447000C9447000C94470020
S11300400C9447000C9447000C9447000C94470010
S11300500C94470011241FBECFE5D8E0DEBFCDBF0E
S113006010E0A0E6B0E0EEEAF5E002C005900D92E3
S1130070A439B107D9F710E0A4E9B0E001C01D929A
S1130080A439B107E1F70E9474020C94D5020C94D0
S11300900000823451F1833420F4813409F07BC0B0
S11300A007C0833409F43EC0843409F074C057C0D7
S11300B0413069F42AB381E090E0AC0102C0440FFE
S11300C0551F6A95E2F7BA01622B6ABB08952AB3F9
S11300D081E090E0AC0102C0440F551F6A95E2F73D
S11300E0BA01609562236ABB0895413069F427B36D
S11300F081E090E0AC0102C0440F551F6A95E2F71D
S1130100BA01622B67BB089527B381E090E0AC018C
S113011002C0440F551F6A95E2F7BA016095622345
S113012067BB0895413069F424B381E090E0AC01E9
S113013002C0440F551F6A95E2F7BA01622B64BBF3
S1130140089524B381E090E0AC0102C0440F551F30
S11301506A95E2F7BA016095622364BB0895413061
S113016069F421B381E090E0AC0102C0440F551F53
S11301706A95E2F7BA01622B61BB089521B381E06D
S113018090E0AC0102C0440F551F6A95E2F7BA0132
S11301906095622361BB0895823451F1833420F465
S11301A0813409F07BC007C0833409F43EC0843431
S11301B009F074C057C0413069F42BB381E090E07A
S11301C0AC0102C0440F551F6A95E2F7BA01622BD5
S11301D06BBB08952BB381E090E0AC0102C0440FE7
S11301E0551F6A95E2F7BA01609562236BBB0895C7
S11301F0413069F428B381E090E0AC0102C0440FBF
S1130200551F6A95E2F7BA01622B68BB089528B3BB
S113021081E090E0AC0102C0440F551F6A95E2F7FB
S1130220BA016095622368BB0895413069F425B32F
S113023081E090E0AC0102C0440F551F6A95E2F7DB
S1130240BA01622B65BB089525B381E090E0AC014F
S113025002C0440F551F6A95E2F7BA016095622304
S113026065BB0895413069F422B381E090E0AC01AC
S113027002C0440F551F6A95E2F7BA01622B62BBB4
S1130280089522B381E090E0AC0102C0440F551FF1
S11302906A95E2F7BA016095622362BB08958234DD
S11302A0F9F0833420F4813409F052C006C0833459
S11302B051F1843409F04CC039C029B381E090E095
S11302C0062E02C0880F991F0A94E2F730E08223B9
S11302D0932302C0959587956A95E2F7982F38C0C5
S11302E026B381E090E0062E02C0880F991F0A947D
S11302F0E2F730E08223932302C0959587956A95AF
S1130300E2F7982F25C023B381E090E0062E02C0C7
S1130310880F991F0A94E2F730E08223932302C0E6
S1130320959587956A95E2F7982F12C020B381E0DE
S113033090E0062E02C0880F991F0A94E2F730E07D
S11303408223932302C0959587956A95E2F7982FA7
S1130350892F08958234B9F0833418F48134C9F5AF
S113036005C08334E9F08434A1F527C02BB381E0C0
S113037090E0AC0102C0440F551F6A95E2F7BA0140
S113038062276BBB089528B381E090E0AC0102C002
S1130390440F551F6A95E2F7BA01622768BB0895B6
S11303A025B381E090E0AC0102C0440F551F6A956B
S11303B0E2F7BA01622765BB089522B381E090E0B9
S11303C0AC0102C0440F551F6A95E2F7BA016227D7
S11303D062BB0895C39A8FE19EE40197F1F700C0D0
S11303E00000C3988FE19EE40197F1F700C000007C
S11303F00895CF93C82F8BB38F708BBB8BB39C2F77
S1130400907F892B8BBBC1980E94EA018BB38F70BC
S11304108BBB8BB3C295C07FC82BCBBBC1980E944A
S1130420EA01CF91089587B38E6087BB8AB3806F4A
S11304308ABBC29883E30E94F90182E30E94F90116
S113044088E20E94F90181E00E94F9018FE00E9494
S1130450F9018FEF99EFA0E081509040A040E1F7BF
S113046000C000000895CF93C82F8BB38F708BBB4F
S11304708BB39C2F907F892B8BBBC19A0E94EA017E
S11304808BB38F708BBB8BB3C295C07FC82BCBBB98
S1130490C19A0E94EA01CF91089580E10E94F90176
S11304A080E20E94330280E10E94F9010895CF9313
S11304B0DF93EC018881882331F021960E94330276
S11304C089918823D9F7DF91CF91089581E00E9423
S11304D0F9010895882319F4862F805802C0862FC5
S11304E080540E94F90108950E94CA020E941302D6
S11304F0CAE7D0E007E810E00F2EF0E6EF2EF0E0B8
S1130500FF2EF02D0F2EFDE6CF2EF0E0DF2EF02D86
S11305100E94D10290E0C0978230910581F083302F
S11305209105B9F081309105F1F40E946602C7018A
S11305300E94570283E460E00E94AA01E9CF0E946E
S11305406602C6010E94570283E461E00E94AA0188
S1130550DFCF0E946602CE010E94570283E462E06C
S11305600E94AA01D5CF0E946602C8010E945702C8
S1130570CFCF6C9A689A699A7098BC9ABD9ABE98C3
S1130580BF9AC49A6E9A0895C4988FB9779BFECF88
S1130590C49A08956C98BC98BD98BE9ABF986E9AF8
S11105A00895779BFECF8FB10895F894FFCF96
S11305AE546F67676C6520526F6F6D3100546F67BF
S11305BE676C6520526F6F6D3200546F67676C65A0
S11305CE20526F6F6D330057726F6E672043686FE2
S10705DE69636500E4
S9030000FC
