S00C00004D4355312E7372656302
S11300000C942A000C9447000C9447000C9447006D
S11300100C9447000C9447000C9447000C94470040
S11300200C9447000C9447000C9447000C94470030
S11300300C9447000C9418010C9447000C9447004E
S11300400C9447000C9447000C9447000C94470010
S11300500C94470011241FBECFE5D8E0DEBFCDBF0E
S113006010E0A0E6B0E0ECEAF3E002C005900D92E7
S1130070AE38B107D9F710E0AEE8B0E001C01D9288
S1130080A139B107E1F70E94F2000C94D4010C9459
S11300900000E199FECF9FBB8EBB6DBBE29AE19A53
S11300A00895E199FECF9FBB8EBBE09A8DB308956E
S11300B080E895E20E94C101089590E00E94D00179
S11300C00895C39A8FE19EE40197F1F700C0000000
S11300D0C3988FE19EE40197F1F700C000000895F2
S11300E0CF93C82F8BB38F708BBB8BB39C2F907F18
S11300F0892B8BBBC1980E9461008BB38F708BBB23
S11301008BB3C295C07FC82BCBBBC1980E94610042
S1130110CF91089587B38E6087BB8AB3806F8ABB03
S1130120C29883E30E94700082E30E94700088E218
S11301300E94700081E00E9470008FE00E947000B5
S11301408FEF99EFA0E081509040A040E1F700C00C
S113015000000895CF93C82F8BB38F708BBB8BB3E4
S11301609C2F907F892B8BBBC19A0E9461008BB31B
S11301708F708BBB8BB3C295C07FC82BCBBBC19A8E
S11301800E946100CF91089580E10E94700080E296
S11301900E94AA0080E10E9470000895CF93DF932B
S11301A0EC018881882331F021960E94AA0089916C
S11301B08823D9F7DF91CF91089581E00E947000E0
S11301C00895882319F4862F805802C0862F8054FE
S11301D00E947000089580E10E9470008AE20E94EB
S11301E0AA0008950E942A010E9432010E94470138
S11301F080938E008130D1F70E94DD0080E690E08C
S11302000E94CE008FEF99E6A8E181509040A04073
S1130210E1F700C000000E94DD0080919000813071
S1130220E1F71092900080918F000E94B001F5CF09
S11302301F920F920FB60F9211248F9381E0809337
S113024090008CB180938F008F910F900FBE0F9010
S11302501F9018950E9458000E94A50178940E944E
S11302608A00089580E090E061E00E94490081E006
S113027090E062E00E94490082E090E063E00E9426
S1130280490083E090E064E00E94490008951F93D0
S1130290CF93DF930E94DD008EE690E00E94CE00B3
S11302A081E090E060E070E00E94E100C4E0D0E012
S11302B0809190008823E1F31092900060918F0068
S11302C06053CE010E94490080918F0090E00E940B
S11302D0AA002FEF34E34CE0215030404040E1F7D6
S11302E000C000000E94EB002196C830D10501F740
S11302F0C0E0D0E0CE010E945100182FCE01049638
S11303000E945100181729F42196C430D10591F7A1
S113031014C00E94DD0087E790E00E94CE0080E0D8
S11303202FEF33ED40E3215030404040E1F700C06F
S11303300000DF91CF911F9108950E94DD0085E8B0
S113034090E00E94CE0081E0EBCF6C9A689A699AA3
S11303507098BC9ABD9ABE98BF9AC49A6E9A089532
S1130360C4988FB9779BFECFC49A08956C98BC98B3
S1130370BD98BE9ABF986E9A0895779BFECF8FB1B1
S1130380089587E689B910BC80E880BD90B5926075
S113039090BD90B5946090BD8AB9539A549A0895CB
S10F03A05D9BFECF8CB90895F894FFCF4C
S11303AC43686F6F7365206120526F6F6D005061ED
S11303BC7373776F72640041636365737320446570
S11103CC6E6965640057656C636F6D650000B3
S9030000FC
